{
  "_format": "hh-sol-artifact-1",
  "contractName": "NFDDates",
  "sourceName": "contracts/NFDDates.sol",
  "abi": [
    {
      "anonymous": false,
      "inputs": [
        {
          "indexed": false,
          "internalType": "address",
          "name": "previousAdmin",
          "type": "address"
        },
        {
          "indexed": false,
          "internalType": "address",
          "name": "newAdmin",
          "type": "address"
        }
      ],
      "name": "AdminChanged",
      "type": "event"
    },
    {
      "anonymous": false,
      "inputs": [
        {
          "indexed": true,
          "internalType": "address",
          "name": "owner",
          "type": "address"
        },
        {
          "indexed": true,
          "internalType": "address",
          "name": "approved",
          "type": "address"
        },
        {
          "indexed": true,
          "internalType": "uint256",
          "name": "tokenId",
          "type": "uint256"
        }
      ],
      "name": "Approval",
      "type": "event"
    },
    {
      "anonymous": false,
      "inputs": [
        {
          "indexed": true,
          "internalType": "address",
          "name": "owner",
          "type": "address"
        },
        {
          "indexed": true,
          "internalType": "address",
          "name": "operator",
          "type": "address"
        },
        {
          "indexed": false,
          "internalType": "bool",
          "name": "approved",
          "type": "bool"
        }
      ],
      "name": "ApprovalForAll",
      "type": "event"
    },
    {
      "anonymous": false,
      "inputs": [
        {
          "indexed": true,
          "internalType": "address",
          "name": "beacon",
          "type": "address"
        }
      ],
      "name": "BeaconUpgraded",
      "type": "event"
    },
    {
      "anonymous": false,
      "inputs": [
        {
          "indexed": true,
          "internalType": "uint256",
          "name": "tokenId",
          "type": "uint256"
        },
        {
          "indexed": false,
          "internalType": "address",
          "name": "seller",
          "type": "address"
        },
        {
          "indexed": false,
          "internalType": "address",
          "name": "owner",
          "type": "address"
        },
        {
          "indexed": false,
          "internalType": "uint256",
          "name": "price",
          "type": "uint256"
        },
        {
          "indexed": false,
          "internalType": "bool",
          "name": "forSale",
          "type": "bool"
        }
      ],
      "name": "MarketItemCreated",
      "type": "event"
    },
    {
      "anonymous": false,
      "inputs": [
        {
          "indexed": true,
          "internalType": "address",
          "name": "previousOwner",
          "type": "address"
        },
        {
          "indexed": true,
          "internalType": "address",
          "name": "newOwner",
          "type": "address"
        }
      ],
      "name": "OwnershipTransferred",
      "type": "event"
    },
    {
      "anonymous": false,
      "inputs": [
        {
          "indexed": false,
          "internalType": "address",
          "name": "account",
          "type": "address"
        }
      ],
      "name": "Paused",
      "type": "event"
    },
    {
      "anonymous": false,
      "inputs": [
        {
          "indexed": true,
          "internalType": "address",
          "name": "from",
          "type": "address"
        },
        {
          "indexed": true,
          "internalType": "address",
          "name": "to",
          "type": "address"
        },
        {
          "indexed": true,
          "internalType": "uint256",
          "name": "tokenId",
          "type": "uint256"
        }
      ],
      "name": "Transfer",
      "type": "event"
    },
    {
      "anonymous": false,
      "inputs": [
        {
          "indexed": false,
          "internalType": "address",
          "name": "account",
          "type": "address"
        }
      ],
      "name": "Unpaused",
      "type": "event"
    },
    {
      "anonymous": false,
      "inputs": [
        {
          "indexed": true,
          "internalType": "address",
          "name": "implementation",
          "type": "address"
        }
      ],
      "name": "Upgraded",
      "type": "event"
    },
    {
      "inputs": [
        {
          "internalType": "address",
          "name": "to",
          "type": "address"
        },
        {
          "internalType": "uint256",
          "name": "tokenId",
          "type": "uint256"
        }
      ],
      "name": "approve",
      "outputs": [],
      "stateMutability": "nonpayable",
      "type": "function"
    },
    {
      "inputs": [
        {
          "internalType": "address",
          "name": "owner",
          "type": "address"
        }
      ],
      "name": "balanceOf",
      "outputs": [
        {
          "internalType": "uint256",
          "name": "",
          "type": "uint256"
        }
      ],
      "stateMutability": "view",
      "type": "function"
    },
    {
      "inputs": [
        {
          "internalType": "uint256",
          "name": "price_",
          "type": "uint256"
        }
      ],
      "name": "createMarketSale",
      "outputs": [],
      "stateMutability": "payable",
      "type": "function"
    },
    {
      "inputs": [
        {
          "internalType": "uint256",
          "name": "percentage_",
          "type": "uint256"
        },
        {
          "internalType": "uint256",
          "name": "tokenId_",
          "type": "uint256"
        }
      ],
      "name": "createResellMarketSale",
      "outputs": [],
      "stateMutability": "payable",
      "type": "function"
    },
    {
      "inputs": [
        {
          "internalType": "uint256",
          "name": "tokenId",
          "type": "uint256"
        }
      ],
      "name": "getApproved",
      "outputs": [
        {
          "internalType": "address",
          "name": "",
          "type": "address"
        }
      ],
      "stateMutability": "view",
      "type": "function"
    },
    {
      "inputs": [],
      "name": "getBalance",
      "outputs": [
        {
          "internalType": "uint256",
          "name": "",
          "type": "uint256"
        }
      ],
      "stateMutability": "view",
      "type": "function"
    },
    {
      "inputs": [],
      "name": "initialize",
      "outputs": [],
      "stateMutability": "nonpayable",
      "type": "function"
    },
    {
      "inputs": [
        {
          "internalType": "address",
          "name": "owner",
          "type": "address"
        },
        {
          "internalType": "address",
          "name": "operator",
          "type": "address"
        }
      ],
      "name": "isApprovedForAll",
      "outputs": [
        {
          "internalType": "bool",
          "name": "",
          "type": "bool"
        }
      ],
      "stateMutability": "view",
      "type": "function"
    },
    {
      "inputs": [],
      "name": "name",
      "outputs": [
        {
          "internalType": "string",
          "name": "",
          "type": "string"
        }
      ],
      "stateMutability": "view",
      "type": "function"
    },
    {
      "inputs": [],
      "name": "owner",
      "outputs": [
        {
          "internalType": "address",
          "name": "",
          "type": "address"
        }
      ],
      "stateMutability": "view",
      "type": "function"
    },
    {
      "inputs": [
        {
          "internalType": "uint256",
          "name": "tokenId",
          "type": "uint256"
        }
      ],
      "name": "ownerOf",
      "outputs": [
        {
          "internalType": "address",
          "name": "",
          "type": "address"
        }
      ],
      "stateMutability": "view",
      "type": "function"
    },
    {
      "inputs": [],
      "name": "paused",
      "outputs": [
        {
          "internalType": "bool",
          "name": "",
          "type": "bool"
        }
      ],
      "stateMutability": "view",
      "type": "function"
    },
    {
      "inputs": [],
      "name": "proxiableUUID",
      "outputs": [
        {
          "internalType": "bytes32",
          "name": "",
          "type": "bytes32"
        }
      ],
      "stateMutability": "view",
      "type": "function"
    },
    {
      "inputs": [],
      "name": "renounceOwnership",
      "outputs": [],
      "stateMutability": "nonpayable",
      "type": "function"
    },
    {
      "inputs": [
        {
          "internalType": "uint256",
          "name": "price_",
          "type": "uint256"
        },
        {
          "internalType": "uint256",
          "name": "tokenId_",
          "type": "uint256"
        }
      ],
      "name": "resellToken",
      "outputs": [],
      "stateMutability": "nonpayable",
      "type": "function"
    },
    {
      "inputs": [
        {
          "internalType": "address",
          "name": "from",
          "type": "address"
        },
        {
          "internalType": "address",
          "name": "to",
          "type": "address"
        },
        {
          "internalType": "uint256",
          "name": "tokenId",
          "type": "uint256"
        }
      ],
      "name": "safeTransferFrom",
      "outputs": [],
      "stateMutability": "nonpayable",
      "type": "function"
    },
    {
      "inputs": [
        {
          "internalType": "address",
          "name": "from",
          "type": "address"
        },
        {
          "internalType": "address",
          "name": "to",
          "type": "address"
        },
        {
          "internalType": "uint256",
          "name": "tokenId",
          "type": "uint256"
        },
        {
          "internalType": "bytes",
          "name": "_data",
          "type": "bytes"
        }
      ],
      "name": "safeTransferFrom",
      "outputs": [],
      "stateMutability": "nonpayable",
      "type": "function"
    },
    {
      "inputs": [
        {
          "internalType": "address",
          "name": "operator",
          "type": "address"
        },
        {
          "internalType": "bool",
          "name": "approved",
          "type": "bool"
        }
      ],
      "name": "setApprovalForAll",
      "outputs": [],
      "stateMutability": "nonpayable",
      "type": "function"
    },
    {
      "inputs": [],
      "name": "setPause",
      "outputs": [],
      "stateMutability": "nonpayable",
      "type": "function"
    },
    {
      "inputs": [],
      "name": "setUnPause",
      "outputs": [],
      "stateMutability": "nonpayable",
      "type": "function"
    },
    {
      "inputs": [
        {
          "internalType": "bytes4",
          "name": "interfaceId",
          "type": "bytes4"
        }
      ],
      "name": "supportsInterface",
      "outputs": [
        {
          "internalType": "bool",
          "name": "",
          "type": "bool"
        }
      ],
      "stateMutability": "view",
      "type": "function"
    },
    {
      "inputs": [],
      "name": "symbol",
      "outputs": [
        {
          "internalType": "string",
          "name": "",
          "type": "string"
        }
      ],
      "stateMutability": "view",
      "type": "function"
    },
    {
      "inputs": [
        {
          "internalType": "uint256",
          "name": "tokenId",
          "type": "uint256"
        }
      ],
      "name": "tokenURI",
      "outputs": [
        {
          "internalType": "string",
          "name": "",
          "type": "string"
        }
      ],
      "stateMutability": "view",
      "type": "function"
    },
    {
      "inputs": [],
      "name": "totalSupply",
      "outputs": [
        {
          "internalType": "uint256",
          "name": "",
          "type": "uint256"
        }
      ],
      "stateMutability": "view",
      "type": "function"
    },
    {
      "inputs": [
        {
          "internalType": "address",
          "name": "from",
          "type": "address"
        },
        {
          "internalType": "address",
          "name": "to",
          "type": "address"
        },
        {
          "internalType": "uint256",
          "name": "tokenId",
          "type": "uint256"
        }
      ],
      "name": "transferFrom",
      "outputs": [],
      "stateMutability": "nonpayable",
      "type": "function"
    },
    {
      "inputs": [
        {
          "internalType": "address",
          "name": "newOwner",
          "type": "address"
        }
      ],
      "name": "transferOwnership",
      "outputs": [],
      "stateMutability": "nonpayable",
      "type": "function"
    },
    {
      "inputs": [
        {
          "internalType": "address",
          "name": "newImplementation",
          "type": "address"
        }
      ],
      "name": "upgradeTo",
      "outputs": [],
      "stateMutability": "nonpayable",
      "type": "function"
    },
    {
      "inputs": [
        {
          "internalType": "address",
          "name": "newImplementation",
          "type": "address"
        },
        {
          "internalType": "bytes",
          "name": "data",
          "type": "bytes"
        }
      ],
      "name": "upgradeToAndCall",
      "outputs": [],
      "stateMutability": "payable",
      "type": "function"
    },
    {
      "inputs": [],
      "name": "withdraw",
      "outputs": [],
      "stateMutability": "payable",
      "type": "function"
    }
  ],
  "bytecode": "0x60a06040523060805234801561001457600080fd5b50608051612ad361004c600039600081816109ee01528181610a2e01528181610c0901528181610c490152610cd80152612ad36000f3fe6080604052600436106101c15760003560e01c80636352211e116100f7578063b88d4fde11610095578063d431b1ac11610064578063d431b1ac1461048f578063e219fc75146104a4578063e985e9c5146104c4578063f2fde38b1461050e57600080fd5b8063b88d4fde14610427578063be9af53614610447578063c537a1b11461045a578063c87b56dd1461046f57600080fd5b80638129fc1c116100d15780638129fc1c146103bf5780638da5cb5b146103d457806395d89b41146103f2578063a22cb4651461040757600080fd5b80636352211e1461036a57806370a082311461038a578063715018a6146103aa57600080fd5b806323b872dd1161016457806342842e0e1161013e57806342842e0e1461030a5780634f1ef2861461032a57806352d1902d1461033d5780635c975abb1461035257600080fd5b806323b872dd146102c25780633659cfe6146102e25780633ccfd60b1461030257600080fd5b8063081812fc116101a0578063081812fc14610232578063095ea7b31461026a57806312065fe01461028a57806318160ddd146102ad57600080fd5b80627273ae146101c657806301ffc9a7146101db57806306fdde0314610210575b600080fd5b6101d96101d436600461233e565b61052e565b005b3480156101e757600080fd5b506101fb6101f6366004612376565b6106dd565b60405190151581526020015b60405180910390f35b34801561021c57600080fd5b5061022561072f565b60405161020791906123eb565b34801561023e57600080fd5b5061025261024d3660046123fe565b6107c2565b6040516001600160a01b039091168152602001610207565b34801561027657600080fd5b506101d9610285366004612433565b610859565b34801561029657600080fd5b5061029f61096f565b604051908152602001610207565b3480156102b957600080fd5b5061029f6109a1565b3480156102ce57600080fd5b506101d96102dd36600461245d565b6109b2565b3480156102ee57600080fd5b506101d96102fd366004612499565b6109e3565b6101d9610ac3565b34801561031657600080fd5b506101d961032536600461245d565b610be3565b6101d9610338366004612557565b610bfe565b34801561034957600080fd5b5061029f610ccb565b34801561035e57600080fd5b5060c95460ff166101fb565b34801561037657600080fd5b506102526103853660046123fe565b610d7e565b34801561039657600080fd5b5061029f6103a5366004612499565b610df6565b3480156103b657600080fd5b506101d9610e7e565b3480156103cb57600080fd5b506101d9610eb4565b3480156103e057600080fd5b506097546001600160a01b0316610252565b3480156103fe57600080fd5b50610225610fbb565b34801561041357600080fd5b506101d96104223660046125a5565b610fcb565b34801561043357600080fd5b506101d96104423660046125e1565b610fd6565b6101d96104553660046123fe565b61100e565b34801561046657600080fd5b506101d96110a5565b34801561047b57600080fd5b5061022561048a3660046123fe565b6110d7565b34801561049b57600080fd5b506101d96111c0565b3480156104b057600080fd5b506101d96104bf36600461233e565b6111f2565b3480156104d057600080fd5b506101fb6104df366004612649565b6001600160a01b0391821660009081526101326020908152604080832093909416825291909152205460ff1690565b34801561051a57600080fd5b506101d9610529366004612499565b611294565b60c95460ff161561055a5760405162461bcd60e51b81526004016105519061267c565b60405180910390fd5b60008181526101616020526040902060030154341580159061057c5750803410155b6105c85760405162461bcd60e51b815260206004820152601e60248201527f4e464444617465733a205072696365206973206e6f7420636f727265637400006044820152606401610551565b600060646105d685346126bc565b6105e091906126f1565b905060006105ee8234612705565b600085815261016160205260409020600101549091506001600160a01b031661061830338761132c565b60008581526101616020526040808220346003820181905560048201805460ff19169055600182018054336001600160a01b03199182168117909255600290930180549093168117909255915188937fb640004f1d14576d0c209e240cad0410e0d8c0c33a09375861fbadae2588a98d93610696939283929061271c565b60405180910390a26040516001600160a01b0382169083156108fc029084906000818181858888f193505050501580156106d4573d6000803e3d6000fd5b50505050505050565b60006001600160e01b031982166380ac58cd60e01b148061070e57506001600160e01b03198216635b5e139f60e01b145b8061072957506301ffc9a760e01b6001600160e01b03198316145b92915050565b606061012d805461073f90612745565b80601f016020809104026020016040519081016040528092919081815260200182805461076b90612745565b80156107b85780601f1061078d576101008083540402835291602001916107b8565b820191906000526020600020905b81548152906001019060200180831161079b57829003601f168201915b5050505050905090565b600081815261012f60205260408120546001600160a01b031661083c5760405162461bcd60e51b815260206004820152602c60248201527f4552433732313a20617070726f76656420717565727920666f72206e6f6e657860448201526b34b9ba32b73a103a37b5b2b760a11b6064820152608401610551565b50600090815261013160205260409020546001600160a01b031690565b600061086482610d7e565b9050806001600160a01b0316836001600160a01b031614156108d25760405162461bcd60e51b815260206004820152602160248201527f4552433732313a20617070726f76616c20746f2063757272656e74206f776e656044820152603960f91b6064820152608401610551565b336001600160a01b03821614806108ee57506108ee81336104df565b6109605760405162461bcd60e51b815260206004820152603860248201527f4552433732313a20617070726f76652063616c6c6572206973206e6f74206f7760448201527f6e6572206e6f7220617070726f76656420666f7220616c6c00000000000000006064820152608401610551565b61096a83836114cb565b505050565b6097546000906001600160a01b0316331461099c5760405162461bcd60e51b815260040161055190612780565b504790565b60006109ad61015f5490565b905090565b6109bc338261153a565b6109d85760405162461bcd60e51b8152600401610551906127b5565b61096a83838361132c565b306001600160a01b037f0000000000000000000000000000000000000000000000000000000000000000161415610a2c5760405162461bcd60e51b815260040161055190612806565b7f00000000000000000000000000000000000000000000000000000000000000006001600160a01b0316610a75600080516020612a57833981519152546001600160a01b031690565b6001600160a01b031614610a9b5760405162461bcd60e51b815260040161055190612852565b610aa481611633565b60408051600080825260208201909252610ac09183919061165d565b50565b6097546001600160a01b03163314610aed5760405162461bcd60e51b815260040161055190612780565b4780610b475760405162461bcd60e51b815260206004820152602360248201527f4e464444617465733a204e6f206574686572206c65667420746f20776974686460448201526272617760e81b6064820152608401610551565b604051600090339083908381818185875af1925050503d8060008114610b89576040519150601f19603f3d011682016040523d82523d6000602084013e610b8e565b606091505b5050905080610bdf5760405162461bcd60e51b815260206004820152601a60248201527f4e464444617465733a205472616e73666572206661696c65642e0000000000006044820152606401610551565b5050565b61096a83838360405180602001604052806000815250610fd6565b306001600160a01b037f0000000000000000000000000000000000000000000000000000000000000000161415610c475760405162461bcd60e51b815260040161055190612806565b7f00000000000000000000000000000000000000000000000000000000000000006001600160a01b0316610c90600080516020612a57833981519152546001600160a01b031690565b6001600160a01b031614610cb65760405162461bcd60e51b815260040161055190612852565b610cbf82611633565b610bdf8282600161165d565b6000306001600160a01b037f00000000000000000000000000000000000000000000000000000000000000001614610d6b5760405162461bcd60e51b815260206004820152603860248201527f555550535570677261646561626c653a206d757374206e6f742062652063616c60448201527f6c6564207468726f7567682064656c656761746563616c6c00000000000000006064820152608401610551565b50600080516020612a5783398151915290565b600081815261012f60205260408120546001600160a01b0316806107295760405162461bcd60e51b815260206004820152602960248201527f4552433732313a206f776e657220717565727920666f72206e6f6e657869737460448201526832b73a103a37b5b2b760b91b6064820152608401610551565b60006001600160a01b038216610e615760405162461bcd60e51b815260206004820152602a60248201527f4552433732313a2062616c616e636520717565727920666f7220746865207a65604482015269726f206164647265737360b01b6064820152608401610551565b506001600160a01b03166000908152610130602052604090205490565b6097546001600160a01b03163314610ea85760405162461bcd60e51b815260040161055190612780565b610eb260006117d7565b565b600054610100900460ff16610ecf5760005460ff1615610ed3565b303b155b610f365760405162461bcd60e51b815260206004820152602e60248201527f496e697469616c697a61626c653a20636f6e747261637420697320616c72656160448201526d191e481a5b9a5d1a585b1a5e995960921b6064820152608401610551565b600054610100900460ff16158015610f58576000805461ffff19166101011790555b610f9f604051806040016040528060098152602001684e444620446174657360b81b815250604051806040016040528060048152602001631391911160e21b815250611829565b610fa761185a565b8015610ac0576000805461ff001916905550565b606061012e805461073f90612745565b610bdf338383611889565b610fe0338361153a565b610ffc5760405162461bcd60e51b8152600401610551906127b5565b61100884848484611959565b50505050565b60c95460ff16156110315760405162461bcd60e51b81526004016105519061267c565b60008111801561104057508034145b61108c5760405162461bcd60e51b815260206004820152601c60248201527f5072696365206d757374206265206174206c65617374203120776569000000006044820152606401610551565b6110958161198c565b50610ac061016080546001019055565b6097546001600160a01b031633146110cf5760405162461bcd60e51b815260040161055190612780565b610eb26119bf565b600081815261012f60205260409020546060906001600160a01b03166111575760405162461bcd60e51b815260206004820152602f60248201527f4552433732314d657461646174613a2055524920717565727920666f72206e6f60448201526e3732bc34b9ba32b73a103a37b5b2b760891b6064820152608401610551565b600061116e60408051602081019091526000815290565b9050600081511161118e57604051806020016040528060008152506111b9565b8061119884611a52565b6040516020016111a992919061289e565b6040516020818303038152906040525b9392505050565b6097546001600160a01b031633146111ea5760405162461bcd60e51b815260040161055190612780565b610eb2611b50565b60c95460ff16156112155760405162461bcd60e51b81526004016105519061267c565b600081815261016160205260409020600101546001600160a01b0316331461127f5760405162461bcd60e51b815260206004820152601d60248201527f4e464444617465733a204f6e6c79206f776e6572206f6620746f6b656e0000006044820152606401610551565b6112898282611ba8565b610bdf33308361132c565b6097546001600160a01b031633146112be5760405162461bcd60e51b815260040161055190612780565b6001600160a01b0381166113235760405162461bcd60e51b815260206004820152602660248201527f4f776e61626c653a206e6577206f776e657220697320746865207a65726f206160448201526564647265737360d01b6064820152608401610551565b610ac0816117d7565b826001600160a01b031661133f82610d7e565b6001600160a01b0316146113a35760405162461bcd60e51b815260206004820152602560248201527f4552433732313a207472616e736665722066726f6d20696e636f72726563742060448201526437bbb732b960d91b6064820152608401610551565b6001600160a01b0382166114055760405162461bcd60e51b8152602060048201526024808201527f4552433732313a207472616e7366657220746f20746865207a65726f206164646044820152637265737360e01b6064820152608401610551565b6114106000826114cb565b6001600160a01b03831660009081526101306020526040812080546001929061143a908490612705565b90915550506001600160a01b0382166000908152610130602052604081208054600192906114699084906128cd565b9091555050600081815261012f602052604080822080546001600160a01b0319166001600160a01b0386811691821790925591518493918716917fddf252ad1be2c89b69c2b068fc378daa952ba7f163c4a11628f55a4df523b3ef91a4505050565b60008181526101316020526040902080546001600160a01b0319166001600160a01b038416908117909155819061150182610d7e565b6001600160a01b03167f8c5be1e5ebec7d5bd14f71427d1e84f3dd0314c0f7b2291e5b200ac8c7c3b92560405160405180910390a45050565b600081815261012f60205260408120546001600160a01b03166115b45760405162461bcd60e51b815260206004820152602c60248201527f4552433732313a206f70657261746f7220717565727920666f72206e6f6e657860448201526b34b9ba32b73a103a37b5b2b760a11b6064820152608401610551565b60006115bf83610d7e565b9050806001600160a01b0316846001600160a01b031614806115fa5750836001600160a01b03166115ef846107c2565b6001600160a01b0316145b8061162b57506001600160a01b038082166000908152610132602090815260408083209388168352929052205460ff165b949350505050565b6097546001600160a01b03163314610ac05760405162461bcd60e51b815260040161055190612780565b7f4910fdfa16fed3260ed0e7147f7cc6da11a60208b5b9406d12a635614ffd91435460ff16156116905761096a83611c41565b826001600160a01b03166352d1902d6040518163ffffffff1660e01b815260040160206040518083038186803b1580156116c957600080fd5b505afa9250505080156116f9575060408051601f3d908101601f191682019092526116f6918101906128e5565b60015b61175c5760405162461bcd60e51b815260206004820152602e60248201527f45524331393637557067726164653a206e657720696d706c656d656e7461746960448201526d6f6e206973206e6f74205555505360901b6064820152608401610551565b600080516020612a5783398151915281146117cb5760405162461bcd60e51b815260206004820152602960248201527f45524331393637557067726164653a20756e737570706f727465642070726f786044820152681a58589b195555525160ba1b6064820152608401610551565b5061096a838383611cdd565b609780546001600160a01b038381166001600160a01b0319831681179093556040519116919082907f8be0079c531659141344cd1fd0a4f28419497f9722a3daafe3b4186f6b6457e090600090a35050565b600054610100900460ff166118505760405162461bcd60e51b8152600401610551906128fe565b610bdf8282611d02565b600054610100900460ff166118815760405162461bcd60e51b8152600401610551906128fe565b610eb2611d52565b816001600160a01b0316836001600160a01b031614156118eb5760405162461bcd60e51b815260206004820152601960248201527f4552433732313a20617070726f766520746f2063616c6c6572000000000000006044820152606401610551565b6001600160a01b0383811660008181526101326020908152604080832094871680845294825291829020805460ff191686151590811790915591519182527f17307eab39ab6107e8899845ad3d59bd9653f200f220920489ca2b5937696c31910160405180910390a3505050565b61196484848461132c565b61197084848484611d82565b6110085760405162461bcd60e51b815260040161055190612949565b600061199d61015f80546001019055565b60006119a961015f5490565b90506119b53382611e8f565b6107298184611ea9565b60c95460ff16611a085760405162461bcd60e51b815260206004820152601460248201527314185d5cd8589b194e881b9bdd081c185d5cd95960621b6044820152606401610551565b60c9805460ff191690557f5db9ee0a495bf2e6ff9c91a7834c1ba4fdd244a5e8aa4e537bd38aeae4b073aa335b6040516001600160a01b03909116815260200160405180910390a1565b606081611a765750506040805180820190915260018152600360fc1b602082015290565b8160005b8115611aa05780611a8a8161299b565b9150611a999050600a836126f1565b9150611a7a565b60008167ffffffffffffffff811115611abb57611abb6124b4565b6040519080825280601f01601f191660200182016040528015611ae5576020820181803683370190505b5090505b841561162b57611afa600183612705565b9150611b07600a866129b6565b611b129060306128cd565b60f81b818381518110611b2757611b276129ca565b60200101906001600160f81b031916908160001a905350611b49600a866126f1565b9450611ae9565b60c95460ff1615611b735760405162461bcd60e51b81526004016105519061267c565b60c9805460ff191660011790557f62e78cea01bee320cd4e420270b5ea74000d11b0c9f74754ebdbfc544b05a258611a353390565b60008181526101616020526040902060048101805460ff1916600190811790915560038201849055810180546001600160a01b031990811633179091556002909101805490911630179055611bfe610160611f69565b807fb640004f1d14576d0c209e240cad0410e0d8c0c33a09375861fbadae2588a98d3330856001604051611c35949392919061271c565b60405180910390a25050565b6001600160a01b0381163b611cae5760405162461bcd60e51b815260206004820152602d60248201527f455243313936373a206e657720696d706c656d656e746174696f6e206973206e60448201526c1bdd08184818dbdb9d1c9858dd609a1b6064820152608401610551565b600080516020612a5783398151915280546001600160a01b0319166001600160a01b0392909216919091179055565b611ce683611fc0565b600082511180611cf35750805b1561096a576110088383612000565b600054610100900460ff16611d295760405162461bcd60e51b8152600401610551906128fe565b8151611d3d9061012d9060208501906122a5565b50805161096a9061012e9060208401906122a5565b600054610100900460ff16611d795760405162461bcd60e51b8152600401610551906128fe565b610eb2336117d7565b60006001600160a01b0384163b15611e8457604051630a85bd0160e11b81526001600160a01b0385169063150b7a0290611dc69033908990889088906004016129e0565b602060405180830381600087803b158015611de057600080fd5b505af1925050508015611e10575060408051601f3d908101601f19168201909252611e0d91810190612a1d565b60015b611e6a573d808015611e3e576040519150601f19603f3d011682016040523d82523d6000602084013e611e43565b606091505b508051611e625760405162461bcd60e51b815260040161055190612949565b805181602001fd5b6001600160e01b031916630a85bd0160e11b14905061162b565b506001949350505050565b610bdf8282604051806020016040528060008152506120f4565b6040805160a081018252838152336020808301828152838501838152606085018781526000608087018181528a82526101619095528781209651875592516001870180546001600160a01b03199081166001600160a01b0393841617909155925160028801805490941691161790915551600385015590516004909301805460ff191693151593909317909255915184927fb640004f1d14576d0c209e240cad0410e0d8c0c33a09375861fbadae2588a98d92611c35928291879161271c565b805480611fb85760405162461bcd60e51b815260206004820152601b60248201527f436f756e7465723a2064656372656d656e74206f766572666c6f7700000000006044820152606401610551565b600019019055565b611fc981611c41565b6040516001600160a01b038216907fbc7cd75a20ee27fd9adebab32041f755214dbc6bffa90cc0225b39da2e5c2d3b90600090a250565b60606001600160a01b0383163b6120685760405162461bcd60e51b815260206004820152602660248201527f416464726573733a2064656c65676174652063616c6c20746f206e6f6e2d636f6044820152651b9d1c9858dd60d21b6064820152608401610551565b600080846001600160a01b0316846040516120839190612a3a565b600060405180830381855af49150503d80600081146120be576040519150601f19603f3d011682016040523d82523d6000602084013e6120c3565b606091505b50915091506120eb8282604051806060016040528060278152602001612a7760279139612127565b95945050505050565b6120fe8383612160565b61210b6000848484611d82565b61096a5760405162461bcd60e51b815260040161055190612949565b606083156121365750816111b9565b8251156121465782518084602001fd5b8160405162461bcd60e51b815260040161055191906123eb565b6001600160a01b0382166121b65760405162461bcd60e51b815260206004820181905260248201527f4552433732313a206d696e7420746f20746865207a65726f20616464726573736044820152606401610551565b600081815261012f60205260409020546001600160a01b03161561221c5760405162461bcd60e51b815260206004820152601c60248201527f4552433732313a20746f6b656e20616c7265616479206d696e746564000000006044820152606401610551565b6001600160a01b0382166000908152610130602052604081208054600192906122469084906128cd565b9091555050600081815261012f602052604080822080546001600160a01b0319166001600160a01b03861690811790915590518392907fddf252ad1be2c89b69c2b068fc378daa952ba7f163c4a11628f55a4df523b3ef908290a45050565b8280546122b190612745565b90600052602060002090601f0160209004810192826122d35760008555612319565b82601f106122ec57805160ff1916838001178555612319565b82800160010185558215612319579182015b828111156123195782518255916020019190600101906122fe565b50612325929150612329565b5090565b5b80821115612325576000815560010161232a565b6000806040838503121561235157600080fd5b50508035926020909101359150565b6001600160e01b031981168114610ac057600080fd5b60006020828403121561238857600080fd5b81356111b981612360565b60005b838110156123ae578181015183820152602001612396565b838111156110085750506000910152565b600081518084526123d7816020860160208601612393565b601f01601f19169290920160200192915050565b6020815260006111b960208301846123bf565b60006020828403121561241057600080fd5b5035919050565b80356001600160a01b038116811461242e57600080fd5b919050565b6000806040838503121561244657600080fd5b61244f83612417565b946020939093013593505050565b60008060006060848603121561247257600080fd5b61247b84612417565b925061248960208501612417565b9150604084013590509250925092565b6000602082840312156124ab57600080fd5b6111b982612417565b634e487b7160e01b600052604160045260246000fd5b600082601f8301126124db57600080fd5b813567ffffffffffffffff808211156124f6576124f66124b4565b604051601f8301601f19908116603f0116810190828211818310171561251e5761251e6124b4565b8160405283815286602085880101111561253757600080fd5b836020870160208301376000602085830101528094505050505092915050565b6000806040838503121561256a57600080fd5b61257383612417565b9150602083013567ffffffffffffffff81111561258f57600080fd5b61259b858286016124ca565b9150509250929050565b600080604083850312156125b857600080fd5b6125c183612417565b9150602083013580151581146125d657600080fd5b809150509250929050565b600080600080608085870312156125f757600080fd5b61260085612417565b935061260e60208601612417565b925060408501359150606085013567ffffffffffffffff81111561263157600080fd5b61263d878288016124ca565b91505092959194509250565b6000806040838503121561265c57600080fd5b61266583612417565b915061267360208401612417565b90509250929050565b60208082526010908201526f14185d5cd8589b194e881c185d5cd95960821b604082015260600190565b634e487b7160e01b600052601160045260246000fd5b60008160001904831182151516156126d6576126d66126a6565b500290565b634e487b7160e01b600052601260045260246000fd5b600082612700576127006126db565b500490565b600082821015612717576127176126a6565b500390565b6001600160a01b0394851681529290931660208301526040820152901515606082015260800190565b600181811c9082168061275957607f821691505b6020821081141561277a57634e487b7160e01b600052602260045260246000fd5b50919050565b6020808252818101527f4f776e61626c653a2063616c6c6572206973206e6f7420746865206f776e6572604082015260600190565b60208082526031908201527f4552433732313a207472616e736665722063616c6c6572206973206e6f74206f6040820152701ddb995c881b9bdc88185c1c1c9bdd9959607a1b606082015260800190565b6020808252602c908201527f46756e6374696f6e206d7573742062652063616c6c6564207468726f7567682060408201526b19195b1959d85d1958d85b1b60a21b606082015260800190565b6020808252602c908201527f46756e6374696f6e206d7573742062652063616c6c6564207468726f7567682060408201526b6163746976652070726f787960a01b606082015260800190565b600083516128b0818460208801612393565b8351908301906128c4818360208801612393565b01949350505050565b600082198211156128e0576128e06126a6565b500190565b6000602082840312156128f757600080fd5b5051919050565b6020808252602b908201527f496e697469616c697a61626c653a20636f6e7472616374206973206e6f74206960408201526a6e697469616c697a696e6760a81b606082015260800190565b60208082526032908201527f4552433732313a207472616e7366657220746f206e6f6e20455243373231526560408201527131b2b4bb32b91034b6b83632b6b2b73a32b960711b606082015260800190565b60006000198214156129af576129af6126a6565b5060010190565b6000826129c5576129c56126db565b500690565b634e487b7160e01b600052603260045260246000fd5b6001600160a01b0385811682528416602082015260408101839052608060608201819052600090612a13908301846123bf565b9695505050505050565b600060208284031215612a2f57600080fd5b81516111b981612360565b60008251612a4c818460208701612393565b919091019291505056fe360894a13ba1a3210667c828492db98dca3e2076cc3735a920a3ca505d382bbc416464726573733a206c6f772d6c6576656c2064656c65676174652063616c6c206661696c6564a2646970667358221220eb722436b7db37da9fe5c8f4d9a27096a46effb8b065ac182aa82e358605e4b764736f6c63430008090033",
  "linkReferences": {},
  "deployedLinkReferences": {}
}